{"contracts/EthereumHistory.sol":{"EthereumHistory":{"abi":[{"anonymous":false,"inputs":[{"indexed":true,"internalType":"address","name":"contractAddress","type":"address"},{"indexed":true,"internalType":"bytes32","name":"contentHash","type":"bytes32"},{"indexed":false,"internalType":"uint256","name":"timestamp","type":"uint256"},{"indexed":false,"internalType":"string","name":"contentJson","type":"string"}],"name":"HistoryPublished","type":"event"},{"inputs":[{"internalType":"address","name":"contractAddress","type":"address"}],"name":"getHistoryHash","outputs":[{"internalType":"bytes32","name":"","type":"bytes32"}],"stateMutability":"view","type":"function"},{"inputs":[{"internalType":"address","name":"contractAddress","type":"address"}],"name":"hasHistory","outputs":[{"internalType":"bool","name":"","type":"bool"}],"stateMutability":"view","type":"function"},{"inputs":[{"internalType":"address","name":"","type":"address"}],"name":"historyHashes","outputs":[{"internalType":"bytes32","name":"","type":"bytes32"}],"stateMutability":"view","type":"function"},{"inputs":[{"internalType":"address","name":"contractAddress","type":"address"},{"internalType":"bytes32","name":"contentHash","type":"bytes32"},{"internalType":"string","name":"contentJson","type":"string"}],"name":"publishHistory","outputs":[],"stateMutability":"nonpayable","type":"function"}],"evm":{"bytecode":{"linkReferences":{},"object":"608060405234801561001057600080fd5b50610356806100206000396000f3fe608060405234801561001057600080fd5b506004361061004c5760003560e01c80637a265bd2146100515780637e1960f014610066578063bab8894114610099578063e2bee1df146100d4575b600080fd5b61006461005f366004610241565b6100fd565b005b6100866100743660046102c8565b60006020819052908152604090205481565b6040519081526020015b60405180910390f35b6100c46100a73660046102c8565b6001600160a01b0316600090815260208190526040902054151590565b6040519015158152602001610090565b6100866100e23660046102c8565b6001600160a01b031660009081526020819052604090205490565b6001600160a01b03841661016a5760405162461bcd60e51b815260206004820152602960248201527f457468657265756d486973746f72793a20696e76616c696420636f6e7472616360448201526874206164647265737360b81b60648201526084015b60405180910390fd5b826101c55760405162461bcd60e51b815260206004820152602560248201527f457468657265756d486973746f72793a20696e76616c696420636f6e74656e74604482015264040d0c2e6d60db1b6064820152608401610161565b6001600160a01b03841660008181526020819052604090819020859055518491907f71a3e348ed31b3ad2702e976a3718b719d1fd54c6867b0e4d86a715e3e9e638190610217904290879087906102ea565b60405180910390a350505050565b80356001600160a01b038116811461023c57600080fd5b919050565b6000806000806060858703121561025757600080fd5b61026085610225565b935060208501359250604085013567ffffffffffffffff8082111561028457600080fd5b818701915087601f83011261029857600080fd5b8135818111156102a757600080fd5b8860208285010111156102b957600080fd5b95989497505060200194505050565b6000602082840312156102da57600080fd5b6102e382610225565b9392505050565b83815260406020820152816040820152818360608301376000818301606090810191909152601f909201601f191601019291505056fea26469706673582212208de42a736d62f13941b71d440b14894bb53e884b8bdf0c07822097f02dda1d6564736f6c63430008140033","opcodes":"PUSH1 0x80 PUSH1 0x40 MSTORE CALLVALUE DUP1 ISZERO PUSH2 0x10 JUMPI PUSH1 0x0 DUP1 REVERT JUMPDEST POP PUSH2 0x356 DUP1 PUSH2 0x20 PUSH1 0x0 CODECOPY PUSH1 0x0 RETURN INVALID PUSH1 0x80 PUSH1 0x40 MSTORE CALLVALUE DUP1 ISZERO PUSH2 0x10 JUMPI PUSH1 0x0 DUP1 REVERT JUMPDEST POP PUSH1 0x4 CALLDATASIZE LT PUSH2 0x4C JUMPI PUSH1 0x0 CALLDATALOAD PUSH1 0xE0 SHR DUP1 PUSH4 0x7A265BD2 EQ PUSH2 0x51 JUMPI DUP1 PUSH4 0x7E1960F0 EQ PUSH2 0x66 JUMPI DUP1 PUSH4 0xBAB88941 EQ PUSH2 0x99 JUMPI DUP1 PUSH4 0xE2BEE1DF EQ PUSH2 0xD4 JUMPI JUMPDEST PUSH1 0x0 DUP1 REVERT JUMPDEST PUSH2 0x64 PUSH2 0x5F CALLDATASIZE PUSH1 0x4 PUSH2 0x241 JUMP JUMPDEST PUSH2 0xFD JUMP JUMPDEST STOP JUMPDEST PUSH2 0x86 PUSH2 0x74 CALLDATASIZE PUSH1 0x4 PUSH2 0x2C8 JUMP JUMPDEST PUSH1 0x0 PUSH1 0x20 DUP2 SWAP1 MSTORE SWAP1 DUP2 MSTORE PUSH1 0x40 SWAP1 KECCAK256 SLOAD DUP2 JUMP JUMPDEST PUSH1 0x40 MLOAD SWAP1 DUP2 MSTORE PUSH1 0x20 ADD JUMPDEST PUSH1 0x40 MLOAD DUP1 SWAP2 SUB SWAP1 RETURN JUMPDEST PUSH2 0xC4 PUSH2 0xA7 CALLDATASIZE PUSH1 0x4 PUSH2 0x2C8 JUMP JUMPDEST PUSH1 0x1 PUSH1 0x1 PUSH1 0xA0 SHL SUB AND PUSH1 0x0 SWAP1 DUP2 MSTORE PUSH1 0x20 DUP2 SWAP1 MSTORE PUSH1 0x40 SWAP1 KECCAK256 SLOAD ISZERO ISZERO SWAP1 JUMP JUMPDEST PUSH1 0x40 MLOAD SWAP1 ISZERO ISZERO DUP2 MSTORE PUSH1 0x20 ADD PUSH2 0x90 JUMP JUMPDEST PUSH2 0x86 PUSH2 0xE2 CALLDATASIZE PUSH1 0x4 PUSH2 0x2C8 JUMP JUMPDEST PUSH1 0x1 PUSH1 0x1 PUSH1 0xA0 SHL SUB AND PUSH1 0x0 SWAP1 DUP2 MSTORE PUSH1 0x20 DUP2 SWAP1 MSTORE PUSH1 0x40 SWAP1 KECCAK256 SLOAD SWAP1 JUMP JUMPDEST PUSH1 0x1 PUSH1 0x1 PUSH1 0xA0 SHL SUB DUP5 AND PUSH2 0x16A JUMPI PUSH1 0x40 MLOAD PUSH3 0x461BCD PUSH1 0xE5 SHL DUP2 MSTORE PUSH1 0x20 PUSH1 0x4 DUP3 ADD MSTORE PUSH1 0x29 PUSH1 0x24 DUP3 ADD MSTORE PUSH32 0x457468657265756D486973746F72793A20696E76616C696420636F6E74726163 PUSH1 0x44 DUP3 ADD MSTORE PUSH9 0x742061646472657373 PUSH1 0xB8 SHL PUSH1 0x64 DUP3 ADD MSTORE PUSH1 0x84 ADD JUMPDEST PUSH1 0x40 MLOAD DUP1 SWAP2 SUB SWAP1 REVERT JUMPDEST DUP3 PUSH2 0x1C5 JUMPI PUSH1 0x40 MLOAD PUSH3 0x461BCD PUSH1 0xE5 SHL DUP2 MSTORE PUSH1 0x20 PUSH1 0x4 DUP3 ADD MSTORE PUSH1 0x25 PUSH1 0x24 DUP3 ADD MSTORE PUSH32 0x457468657265756D486973746F72793A20696E76616C696420636F6E74656E74 PUSH1 0x44 DUP3 ADD MSTORE PUSH5 0x40D0C2E6D PUSH1 0xDB SHL PUSH1 0x64 DUP3 ADD MSTORE PUSH1 0x84 ADD PUSH2 0x161 JUMP JUMPDEST PUSH1 0x1 PUSH1 0x1 PUSH1 0xA0 SHL SUB DUP5 AND PUSH1 0x0 DUP2 DUP2 MSTORE PUSH1 0x20 DUP2 SWAP1 MSTORE PUSH1 0x40 SWAP1 DUP2 SWAP1 KECCAK256 DUP6 SWAP1 SSTORE MLOAD DUP5 SWAP2 SWAP1 PUSH32 0x71A3E348ED31B3AD2702E976A3718B719D1FD54C6867B0E4D86A715E3E9E6381 SWAP1 PUSH2 0x217 SWAP1 TIMESTAMP SWAP1 DUP8 SWAP1 DUP8 SWAP1 PUSH2 0x2EA JUMP JUMPDEST PUSH1 0x40 MLOAD DUP1 SWAP2 SUB SWAP1 LOG3 POP POP POP POP JUMP JUMPDEST DUP1 CALLDATALOAD PUSH1 0x1 PUSH1 0x1 PUSH1 0xA0 SHL SUB DUP2 AND DUP2 EQ PUSH2 0x23C JUMPI PUSH1 0x0 DUP1 REVERT JUMPDEST SWAP2 SWAP1 POP JUMP JUMPDEST PUSH1 0x0 DUP1 PUSH1 0x0 DUP1 PUSH1 0x60 DUP6 DUP8 SUB SLT ISZERO PUSH2 0x257 JUMPI PUSH1 0x0 DUP1 REVERT JUMPDEST PUSH2 0x260 DUP6 PUSH2 0x225 JUMP JUMPDEST SWAP4 POP PUSH1 0x20 DUP6 ADD CALLDATALOAD SWAP3 POP PUSH1 0x40 DUP6 ADD CALLDATALOAD PUSH8 0xFFFFFFFFFFFFFFFF DUP1 DUP3 GT ISZERO PUSH2 0x284 JUMPI PUSH1 0x0 DUP1 REVERT JUMPDEST DUP2 DUP8 ADD SWAP2 POP DUP8 PUSH1 0x1F DUP4 ADD SLT PUSH2 0x298 JUMPI PUSH1 0x0 DUP1 REVERT JUMPDEST DUP2 CALLDATALOAD DUP2 DUP2 GT ISZERO PUSH2 0x2A7 JUMPI PUSH1 0x0 DUP1 REVERT JUMPDEST DUP9 PUSH1 0x20 DUP3 DUP6 ADD ADD GT ISZERO PUSH2 0x2B9 JUMPI PUSH1 0x0 DUP1 REVERT JUMPDEST SWAP6 SWAP9 SWAP5 SWAP8 POP POP PUSH1 0x20 ADD SWAP5 POP POP POP JUMP JUMPDEST PUSH1 0x0 PUSH1 0x20 DUP3 DUP5 SUB SLT ISZERO PUSH2 0x2DA JUMPI PUSH1 0x0 DUP1 REVERT JUMPDEST PUSH2 0x2E3 DUP3 PUSH2 0x225 JUMP JUMPDEST SWAP4 SWAP3 POP POP POP JUMP JUMPDEST DUP4 DUP2 MSTORE PUSH1 0x40 PUSH1 0x20 DUP3 ADD MSTORE DUP2 PUSH1 0x40 DUP3 ADD MSTORE DUP2 DUP4 PUSH1 0x60 DUP4 ADD CALLDATACOPY PUSH1 0x0 DUP2 DUP4 ADD PUSH1 0x60 SWAP1 DUP2 ADD SWAP2 SWAP1 SWAP2 MSTORE PUSH1 0x1F SWAP1 SWAP3 ADD PUSH1 0x1F NOT AND ADD ADD SWAP3 SWAP2 POP POP JUMP INVALID LOG2 PUSH5 0x6970667358 0x22 SLT KECCAK256 DUP14 0xE4 0x2A PUSH20 0x6D62F13941B71D440B14894BB53E884B8BDF0C07 DUP3 KECCAK256 SWAP8 CREATE 0x2D 0xDA SAR PUSH6 0x64736F6C6343 STOP ADDMOD EQ STOP CALLER "},"methodIdentifiers":{"getHistoryHash(address)":"e2bee1df","hasHistory(address)":"bab88941","historyHashes(address)":"7e1960f0","publishHistory(address,bytes32,string)":"7a265bd2"}}}}}